{"abi":[{"type":"constructor","inputs":[],"stateMutability":"nonpayable"},{"type":"function","name":"calculatePredictorAccuracy","inputs":[{"name":"_predictor","type":"address","internalType":"address"}],"outputs":[{"name":"accuracy","type":"uint256","internalType":"uint256"},{"name":"totalVerified","type":"uint256","internalType":"uint256"}],"stateMutability":"view"},{"type":"function","name":"getPrediction","inputs":[{"name":"_predictionId","type":"uint256","internalType":"uint256"}],"outputs":[{"name":"","type":"tuple","internalType":"struct MusicPredictionOracle.Prediction","components":[{"name":"predictor","type":"address","internalType":"address"},{"name":"timestamp","type":"uint256","internalType":"uint256"},{"name":"songId","type":"uint256","internalType":"uint256"},{"name":"hitProbability","type":"uint256","internalType":"uint256"},{"name":"isPredictedHit","type":"bool","internalType":"bool"},{"name":"modelVersion","type":"string","internalType":"string"},{"name":"songHash","type":"string","internalType":"string"},{"name":"verified","type":"bool","internalType":"bool"},{"name":"actualOutcome","type":"bool","internalType":"bool"}]}],"stateMutability":"view"},{"type":"function","name":"getPredictorHistory","inputs":[{"name":"_predictor","type":"address","internalType":"address"}],"outputs":[{"name":"","type":"uint256[]","internalType":"uint256[]"}],"stateMutability":"view"},{"type":"function","name":"getTotalPredictions","inputs":[],"outputs":[{"name":"","type":"uint256","internalType":"uint256"}],"stateMutability":"view"},{"type":"function","name":"nextPredictionId","inputs":[],"outputs":[{"name":"","type":"uint256","internalType":"uint256"}],"stateMutability":"view"},{"type":"function","name":"owner","inputs":[],"outputs":[{"name":"","type":"address","internalType":"address"}],"stateMutability":"view"},{"type":"function","name":"predictions","inputs":[{"name":"","type":"uint256","internalType":"uint256"}],"outputs":[{"name":"predictor","type":"address","internalType":"address"},{"name":"timestamp","type":"uint256","internalType":"uint256"},{"name":"songId","type":"uint256","internalType":"uint256"},{"name":"hitProbability","type":"uint256","internalType":"uint256"},{"name":"isPredictedHit","type":"bool","internalType":"bool"},{"name":"modelVersion","type":"string","internalType":"string"},{"name":"songHash","type":"string","internalType":"string"},{"name":"verified","type":"bool","internalType":"bool"},{"name":"actualOutcome","type":"bool","internalType":"bool"}],"stateMutability":"view"},{"type":"function","name":"predictorHistory","inputs":[{"name":"","type":"address","internalType":"address"},{"name":"","type":"uint256","internalType":"uint256"}],"outputs":[{"name":"","type":"uint256","internalType":"uint256"}],"stateMutability":"view"},{"type":"function","name":"storePrediction","inputs":[{"name":"_songId","type":"uint256","internalType":"uint256"},{"name":"_hitProbability","type":"uint256","internalType":"uint256"},{"name":"_isPredictedHit","type":"bool","internalType":"bool"},{"name":"_modelVersion","type":"string","internalType":"string"},{"name":"_songHash","type":"string","internalType":"string"}],"outputs":[{"name":"","type":"uint256","internalType":"uint256"}],"stateMutability":"nonpayable"},{"type":"function","name":"transferOwnership","inputs":[{"name":"_newOwner","type":"address","internalType":"address"}],"outputs":[],"stateMutability":"nonpayable"},{"type":"function","name":"verifyPrediction","inputs":[{"name":"_predictionId","type":"uint256","internalType":"uint256"},{"name":"_actualOutcome","type":"bool","internalType":"bool"}],"outputs":[],"stateMutability":"nonpayable"},{"type":"event","name":"PredictionStored","inputs":[{"name":"predictionId","type":"uint256","indexed":true,"internalType":"uint256"},{"name":"predictor","type":"address","indexed":true,"internalType":"address"},{"name":"songId","type":"uint256","indexed":false,"internalType":"uint256"},{"name":"hitProbability","type":"uint256","indexed":false,"internalType":"uint256"},{"name":"isPredictedHit","type":"bool","indexed":false,"internalType":"bool"},{"name":"modelVersion","type":"string","indexed":false,"internalType":"string"}],"anonymous":false},{"type":"event","name":"PredictionVerified","inputs":[{"name":"predictionId","type":"uint256","indexed":true,"internalType":"uint256"},{"name":"actualOutcome","type":"bool","indexed":false,"internalType":"bool"},{"name":"verifier","type":"address","indexed":true,"internalType":"address"}],"anonymous":false}],"bytecode":{"object":"0x608060405234801561000f575f80fd5b503360035f6101000a81548173ffffffffffffffffffffffffffffffffffffffff021916908373ffffffffffffffffffffffffffffffffffffffff1602179055505f600281905550611ff7806100645f395ff3fe608060405234801561000f575f80fd5b50600436106100a6575f3560e01c8063697169381161006f57806369716938146101915780638125e8b7146101ad5780638da5cb5b146101dd578063d8d9292e146101fb578063f2fde38b14610219578063fe83bece14610235576100a6565b80624fbbb0146100aa57806314531107146100e2578063331387ca146101125780633c308e49146101425780635c58006114610173575b5f80fd5b6100c460048036038101906100bf919061114d565b610265565b6040516100d99998979695949392919061126a565b60405180910390f35b6100fc60048036038101906100f79190611459565b6103fe565b6040516101099190611508565b60405180910390f35b61012c6004803603810190610127919061154b565b610706565b6040516101399190611508565b60405180910390f35b61015c60048036038101906101579190611589565b610731565b60405161016a9291906115b4565b60405180910390f35b61017b610a71565b6040516101889190611508565b60405180910390f35b6101ab60048036038101906101a691906115db565b610a7a565b005b6101c760048036038101906101c29190611589565b610c58565b6040516101d491906116d0565b60405180910390f35b6101e5610ceb565b6040516101f291906116f0565b60405180910390f35b610203610d10565b6040516102109190611508565b60405180910390f35b610233600480360381019061022e9190611589565b610d16565b005b61024f600480360381019061024a919061114d565b610e56565b60405161025c9190611838565b60405180910390f35b5f602052805f5260405f205f91509050805f015f9054906101000a900473ffffffffffffffffffffffffffffffffffffffff1690806001015490806002015490806003015490806004015f9054906101000a900460ff16908060050180546102cc90611885565b80601f01602080910402602001604051908101604052809291908181526020018280546102f890611885565b80156103435780601f1061031a57610100808354040283529160200191610343565b820191905f5260205f20905b81548152906001019060200180831161032657829003601f168201915b50505050509080600601805461035890611885565b80601f016020809104026020016040519081016040528092919081815260200182805461038490611885565b80156103cf5780601f106103a6576101008083540402835291602001916103cf565b820191905f5260205f20905b8154815290600101906020018083116103b257829003601f168201915b505050505090806007015f9054906101000a900460ff16908060070160019054906101000a900460ff16905089565b5f612710851115610444576040517f08c379a000000000000000000000000000000000000000000000000000000000815260040161043b906118ff565b60405180910390fd5b5f835111610487576040517f08c379a000000000000000000000000000000000000000000000000000000000815260040161047e90611967565b60405180910390fd5b5f8251116104ca576040517f08c379a00000000000000000000000000000000000000000000000000000000081526004016104c1906119cf565b60405180910390fd5b5f60025490506040518061012001604052803373ffffffffffffffffffffffffffffffffffffffff16815260200142815260200188815260200187815260200186151581526020018581526020018481526020015f151581526020015f15158152505f808381526020019081526020015f205f820151815f015f6101000a81548173ffffffffffffffffffffffffffffffffffffffff021916908373ffffffffffffffffffffffffffffffffffffffff1602179055506020820151816001015560408201518160020155606082015181600301556080820151816004015f6101000a81548160ff02191690831515021790555060a08201518160050190816105d29190611b8a565b5060c08201518160060190816105e89190611b8a565b5060e0820151816007015f6101000a81548160ff0219169083151502179055506101008201518160070160016101000a81548160ff02191690831515021790555090505060015f3373ffffffffffffffffffffffffffffffffffffffff1673ffffffffffffffffffffffffffffffffffffffff1681526020019081526020015f2081908060018154018082558091505060019003905f5260205f20015f909190919091505560025f81548092919061069f90611c86565b91905055503373ffffffffffffffffffffffffffffffffffffffff16817f6f71ee649969c04de4bf483a3146c1e58316380d1d17bce811d8efcbfff309ed898989896040516106f19493929190611ccd565b60405180910390a38091505095945050505050565b6001602052815f5260405f20818154811061071f575f80fd5b905f5260205f20015f91509150505481565b5f805f60015f8573ffffffffffffffffffffffffffffffffffffffff1673ffffffffffffffffffffffffffffffffffffffff1681526020019081526020015f208054806020026020016040519081016040528092919081815260200182805480156107b957602002820191905f5260205f20905b8154815260200190600101908083116107a5575b505050505090505f8092505f5b8251811015610a39575f805f8584815181106107e5576107e4611d17565b5b602002602001015181526020019081526020015f20604051806101200160405290815f82015f9054906101000a900473ffffffffffffffffffffffffffffffffffffffff1673ffffffffffffffffffffffffffffffffffffffff1673ffffffffffffffffffffffffffffffffffffffff168152602001600182015481526020016002820154815260200160038201548152602001600482015f9054906101000a900460ff161515151581526020016005820180546108a290611885565b80601f01602080910402602001604051908101604052809291908181526020018280546108ce90611885565b80156109195780601f106108f057610100808354040283529160200191610919565b820191905f5260205f20905b8154815290600101906020018083116108fc57829003601f168201915b5050505050815260200160068201805461093290611885565b80601f016020809104026020016040519081016040528092919081815260200182805461095e90611885565b80156109a95780601f10610980576101008083540402835291602001916109a9565b820191905f5260205f20905b81548152906001019060200180831161098c57829003601f168201915b50505050508152602001600782015f9054906101000a900460ff161515151581526020016007820160019054906101000a900460ff16151515158152505090508060e0015115610a255784806109fe90611c86565b95505080610100015115158160800151151503610a24578280610a2090611c86565b9350505b5b508080610a3190611c86565b9150506107c6565b505f8303610a4e575f80935093505050610a6c565b8261271082610a5d9190611d44565b610a679190611db2565b935050505b915091565b5f600254905090565b60035f9054906101000a900473ffffffffffffffffffffffffffffffffffffffff1673ffffffffffffffffffffffffffffffffffffffff163373ffffffffffffffffffffffffffffffffffffffff1614610b09576040517f08c379a0000000000000000000000000000000000000000000000000000000008152600401610b0090611e52565b60405180910390fd5b816002548110610b4e576040517f08c379a0000000000000000000000000000000000000000000000000000000008152600401610b4590611eba565b60405180910390fd5b5f808481526020019081526020015f206007015f9054906101000a900460ff1615610bae576040517f08c379a0000000000000000000000000000000000000000000000000000000008152600401610ba590611f22565b60405180910390fd5b60015f808581526020019081526020015f206007015f6101000a81548160ff021916908315150217905550815f808581526020019081526020015f2060070160016101000a81548160ff0219169083151502179055503373ffffffffffffffffffffffffffffffffffffffff16837f4d72a20541de599269811a8e72e42cc5f33766368b91d12237e43daa7895df3d84604051610c4b9190611f40565b60405180910390a3505050565b606060015f8373ffffffffffffffffffffffffffffffffffffffff1673ffffffffffffffffffffffffffffffffffffffff1681526020019081526020015f20805480602002602001604051908101604052809291908181526020018280548015610cdf57602002820191905f5260205f20905b815481526020019060010190808311610ccb575b50505050509050919050565b60035f9054906101000a900473ffffffffffffffffffffffffffffffffffffffff1681565b60025481565b60035f9054906101000a900473ffffffffffffffffffffffffffffffffffffffff1673ffffffffffffffffffffffffffffffffffffffff163373ffffffffffffffffffffffffffffffffffffffff1614610da5576040517f08c379a0000000000000000000000000000000000000000000000000000000008152600401610d9c90611e52565b60405180910390fd5b5f73ffffffffffffffffffffffffffffffffffffffff168173ffffffffffffffffffffffffffffffffffffffff1603610e13576040517f08c379a0000000000000000000000000000000000000000000000000000000008152600401610e0a90611fa3565b60405180910390fd5b8060035f6101000a81548173ffffffffffffffffffffffffffffffffffffffff021916908373ffffffffffffffffffffffffffffffffffffffff16021790555050565b610e5e6110a8565b816002548110610ea3576040517f08c379a0000000000000000000000000000000000000000000000000000000008152600401610e9a90611eba565b60405180910390fd5b5f808481526020019081526020015f20604051806101200160405290815f82015f9054906101000a900473ffffffffffffffffffffffffffffffffffffffff1673ffffffffffffffffffffffffffffffffffffffff1673ffffffffffffffffffffffffffffffffffffffff168152602001600182015481526020016002820154815260200160038201548152602001600482015f9054906101000a900460ff16151515158152602001600582018054610f5b90611885565b80601f0160208091040260200160405190810160405280929190818152602001828054610f8790611885565b8015610fd25780601f10610fa957610100808354040283529160200191610fd2565b820191905f5260205f20905b815481529060010190602001808311610fb557829003601f168201915b50505050508152602001600682018054610feb90611885565b80601f016020809104026020016040519081016040528092919081815260200182805461101790611885565b80156110625780601f1061103957610100808354040283529160200191611062565b820191905f5260205f20905b81548152906001019060200180831161104557829003601f168201915b50505050508152602001600782015f9054906101000a900460ff161515151581526020016007820160019054906101000a900460ff161515151581525050915050919050565b6040518061012001604052805f73ffffffffffffffffffffffffffffffffffffffff1681526020015f81526020015f81526020015f81526020015f1515815260200160608152602001606081526020015f151581526020015f151581525090565b5f604051905090565b5f80fd5b5f80fd5b5f819050919050565b61112c8161111a565b8114611136575f80fd5b50565b5f8135905061114781611123565b92915050565b5f6020828403121561116257611161611112565b5b5f61116f84828501611139565b91505092915050565b5f73ffffffffffffffffffffffffffffffffffffffff82169050919050565b5f6111a182611178565b9050919050565b6111b181611197565b82525050565b6111c08161111a565b82525050565b5f8115159050919050565b6111da816111c6565b82525050565b5f81519050919050565b5f82825260208201905092915050565b5f5b838110156112175780820151818401526020810190506111fc565b5f8484015250505050565b5f601f19601f8301169050919050565b5f61123c826111e0565b61124681856111ea565b93506112568185602086016111fa565b61125f81611222565b840191505092915050565b5f6101208201905061127e5f83018c6111a8565b61128b602083018b6111b7565b611298604083018a6111b7565b6112a560608301896111b7565b6112b260808301886111d1565b81810360a08301526112c48187611232565b905081810360c08301526112d88186611232565b90506112e760e08301856111d1565b6112f56101008301846111d1565b9a9950505050505050505050565b61130c816111c6565b8114611316575f80fd5b50565b5f8135905061132781611303565b92915050565b5f80fd5b5f80fd5b7f4e487b71000000000000000000000000000000000000000000000000000000005f52604160045260245ffd5b61136b82611222565b810181811067ffffffffffffffff8211171561138a57611389611335565b5b80604052505050565b5f61139c611109565b90506113a88282611362565b919050565b5f67ffffffffffffffff8211156113c7576113c6611335565b5b6113d082611222565b9050602081019050919050565b828183375f83830152505050565b5f6113fd6113f8846113ad565b611393565b90508281526020810184848401111561141957611418611331565b5b6114248482856113dd565b509392505050565b5f82601f8301126114405761143f61132d565b5b81356114508482602086016113eb565b91505092915050565b5f805f805f60a0868803121561147257611471611112565b5b5f61147f88828901611139565b955050602061149088828901611139565b94505060406114a188828901611319565b935050606086013567ffffffffffffffff8111156114c2576114c1611116565b5b6114ce8882890161142c565b925050608086013567ffffffffffffffff8111156114ef576114ee611116565b5b6114fb8882890161142c565b9150509295509295909350565b5f60208201905061151b5f8301846111b7565b92915050565b61152a81611197565b8114611534575f80fd5b50565b5f8135905061154581611521565b92915050565b5f806040838503121561156157611560611112565b5b5f61156e85828601611537565b925050602061157f85828601611139565b9150509250929050565b5f6020828403121561159e5761159d611112565b5b5f6115ab84828501611537565b91505092915050565b5f6040820190506115c75f8301856111b7565b6115d460208301846111b7565b9392505050565b5f80604083850312156115f1576115f0611112565b5b5f6115fe85828601611139565b925050602061160f85828601611319565b9150509250929050565b5f81519050919050565b5f82825260208201905092915050565b5f819050602082019050919050565b61164b8161111a565b82525050565b5f61165c8383611642565b60208301905092915050565b5f602082019050919050565b5f61167e82611619565b6116888185611623565b935061169383611633565b805f5b838110156116c35781516116aa8882611651565b97506116b583611668565b925050600181019050611696565b5085935050505092915050565b5f6020820190508181035f8301526116e88184611674565b905092915050565b5f6020820190506117035f8301846111a8565b92915050565b61171281611197565b82525050565b611721816111c6565b82525050565b5f82825260208201905092915050565b5f611741826111e0565b61174b8185611727565b935061175b8185602086016111fa565b61176481611222565b840191505092915050565b5f61012083015f8301516117855f860182611709565b5060208301516117986020860182611642565b5060408301516117ab6040860182611642565b5060608301516117be6060860182611642565b5060808301516117d16080860182611718565b5060a083015184820360a08601526117e98282611737565b91505060c083015184820360c08601526118038282611737565b91505060e083015161181860e0860182611718565b5061010083015161182d610100860182611718565b508091505092915050565b5f6020820190508181035f830152611850818461176f565b905092915050565b7f4e487b71000000000000000000000000000000000000000000000000000000005f52602260045260245ffd5b5f600282049050600182168061189c57607f821691505b6020821081036118af576118ae611858565b5b50919050565b7f4869742070726f626162696c697479206d757374206265203c3d2031303030305f82015250565b5f6118e96020836111ea565b91506118f4826118b5565b602082019050919050565b5f6020820190508181035f830152611916816118dd565b9050919050565b7f4d6f64656c2076657273696f6e2063616e6e6f7420626520656d7074790000005f82015250565b5f611951601d836111ea565b915061195c8261191d565b602082019050919050565b5f6020820190508181035f83015261197e81611945565b9050919050565b7f536f6e6720686173682063616e6e6f7420626520656d707479000000000000005f82015250565b5f6119b96019836111ea565b91506119c482611985565b602082019050919050565b5f6020820190508181035f8301526119e6816119ad565b9050919050565b5f819050815f5260205f209050919050565b5f6020601f8301049050919050565b5f82821b905092915050565b5f60088302611a497fffffffffffffffffffffffffffffffffffffffffffffffffffffffffffffffff82611a0e565b611a538683611a0e565b95508019841693508086168417925050509392505050565b5f819050919050565b5f611a8e611a89611a848461111a565b611a6b565b61111a565b9050919050565b5f819050919050565b611aa783611a74565b611abb611ab382611a95565b848454611a1a565b825550505050565b5f90565b611acf611ac3565b611ada818484611a9e565b505050565b5b81811015611afd57611af25f82611ac7565b600181019050611ae0565b5050565b601f821115611b4257611b13816119ed565b611b1c846119ff565b81016020851015611b2b578190505b611b3f611b37856119ff565b830182611adf565b50505b505050565b5f82821c905092915050565b5f611b625f1984600802611b47565b1980831691505092915050565b5f611b7a8383611b53565b9150826002028217905092915050565b611b93826111e0565b67ffffffffffffffff811115611bac57611bab611335565b5b611bb68254611885565b611bc1828285611b01565b5f60209050601f831160018114611bf2575f8415611be0578287015190505b611bea8582611b6f565b865550611c51565b601f198416611c00866119ed565b5f5b82811015611c2757848901518255600182019150602085019450602081019050611c02565b86831015611c445784890151611c40601f891682611b53565b8355505b6001600288020188555050505b505050505050565b7f4e487b71000000000000000000000000000000000000000000000000000000005f52601160045260245ffd5b5f611c908261111a565b91507fffffffffffffffffffffffffffffffffffffffffffffffffffffffffffffffff8203611cc257611cc1611c59565b5b600182019050919050565b5f608082019050611ce05f8301876111b7565b611ced60208301866111b7565b611cfa60408301856111d1565b8181036060830152611d0c8184611232565b905095945050505050565b7f4e487b71000000000000000000000000000000000000000000000000000000005f52603260045260245ffd5b5f611d4e8261111a565b9150611d598361111a565b9250828202611d678161111a565b91508282048414831517611d7e57611d7d611c59565b5b5092915050565b7f4e487b71000000000000000000000000000000000000000000000000000000005f52601260045260245ffd5b5f611dbc8261111a565b9150611dc78361111a565b925082611dd757611dd6611d85565b5b828204905092915050565b7f4f6e6c79206f776e65722063616e2063616c6c20746869732066756e6374696f5f8201527f6e00000000000000000000000000000000000000000000000000000000000000602082015250565b5f611e3c6021836111ea565b9150611e4782611de2565b604082019050919050565b5f6020820190508181035f830152611e6981611e30565b9050919050565b7f50726564696374696f6e20646f6573206e6f74206578697374000000000000005f82015250565b5f611ea46019836111ea565b9150611eaf82611e70565b602082019050919050565b5f6020820190508181035f830152611ed181611e98565b9050919050565b7f50726564696374696f6e20616c726561647920766572696669656400000000005f82015250565b5f611f0c601b836111ea565b9150611f1782611ed8565b602082019050919050565b5f6020820190508181035f830152611f3981611f00565b9050919050565b5f602082019050611f535f8301846111d1565b92915050565b7f4e6577206f776e65722063616e6e6f74206265207a65726f20616464726573735f82015250565b5f611f8d6020836111ea565b9150611f9882611f59565b602082019050919050565b5f6020820190508181035f830152611fba81611f81565b905091905056fea26469706673582212209b8d0554ca22cbca70d47a50638d133ed8b90e966a387dfdb4f8a4da94001f9c64736f6c63430008140033","linkReferences":{}},"methodIdentifiers":{"calculatePredictorAccuracy(address)":"3c308e49","getPrediction(uint256)":"fe83bece","getPredictorHistory(address)":"8125e8b7","getTotalPredictions()":"5c580061","nextPredictionId()":"d8d9292e","owner()":"8da5cb5b","predictions(uint256)":"004fbbb0","predictorHistory(address,uint256)":"331387ca","storePrediction(uint256,uint256,bool,string,string)":"14531107","transferOwnership(address)":"f2fde38b","verifyPrediction(uint256,bool)":"69716938"},"id":17}