{"abi":[{"type":"constructor","inputs":[],"stateMutability":"nonpayable"},{"type":"function","name":"balanceOf","inputs":[{"name":"_predictor","type":"address","internalType":"address"}],"outputs":[{"name":"","type":"uint256","internalType":"uint256"}],"stateMutability":"view"},{"type":"function","name":"balances","inputs":[{"name":"","type":"address","internalType":"address"}],"outputs":[{"name":"","type":"uint256","internalType":"uint256"}],"stateMutability":"view"},{"type":"function","name":"calculatePredictorAccuracy","inputs":[{"name":"_predictor","type":"address","internalType":"address"}],"outputs":[{"name":"accuracy","type":"uint256","internalType":"uint256"},{"name":"totalVerified","type":"uint256","internalType":"uint256"}],"stateMutability":"view"},{"type":"function","name":"decimals","inputs":[],"outputs":[{"name":"","type":"uint8","internalType":"uint8"}],"stateMutability":"view"},{"type":"function","name":"getPrediction","inputs":[{"name":"_predictionId","type":"uint256","internalType":"uint256"}],"outputs":[{"name":"","type":"tuple","internalType":"struct MusicPredictionOracle.Prediction","components":[{"name":"predictor","type":"address","internalType":"address"},{"name":"timestamp","type":"uint256","internalType":"uint256"},{"name":"songId","type":"uint256","internalType":"uint256"},{"name":"hitProbability","type":"uint256","internalType":"uint256"},{"name":"isPredictedHit","type":"bool","internalType":"bool"},{"name":"modelVersion","type":"string","internalType":"string"},{"name":"songHash","type":"string","internalType":"string"},{"name":"verified","type":"bool","internalType":"bool"},{"name":"actualOutcome","type":"bool","internalType":"bool"}]}],"stateMutability":"view"},{"type":"function","name":"getPredictorHistory","inputs":[{"name":"_predictor","type":"address","internalType":"address"}],"outputs":[{"name":"","type":"uint256[]","internalType":"uint256[]"}],"stateMutability":"view"},{"type":"function","name":"getTotalPredictions","inputs":[],"outputs":[{"name":"","type":"uint256","internalType":"uint256"}],"stateMutability":"view"},{"type":"function","name":"name","inputs":[],"outputs":[{"name":"","type":"string","internalType":"string"}],"stateMutability":"view"},{"type":"function","name":"nextPredictionId","inputs":[],"outputs":[{"name":"","type":"uint256","internalType":"uint256"}],"stateMutability":"view"},{"type":"function","name":"owner","inputs":[],"outputs":[{"name":"","type":"address","internalType":"address"}],"stateMutability":"view"},{"type":"function","name":"predictions","inputs":[{"name":"","type":"uint256","internalType":"uint256"}],"outputs":[{"name":"predictor","type":"address","internalType":"address"},{"name":"timestamp","type":"uint256","internalType":"uint256"},{"name":"songId","type":"uint256","internalType":"uint256"},{"name":"hitProbability","type":"uint256","internalType":"uint256"},{"name":"isPredictedHit","type":"bool","internalType":"bool"},{"name":"modelVersion","type":"string","internalType":"string"},{"name":"songHash","type":"string","internalType":"string"},{"name":"verified","type":"bool","internalType":"bool"},{"name":"actualOutcome","type":"bool","internalType":"bool"}],"stateMutability":"view"},{"type":"function","name":"predictorHistory","inputs":[{"name":"","type":"address","internalType":"address"},{"name":"","type":"uint256","internalType":"uint256"}],"outputs":[{"name":"","type":"uint256","internalType":"uint256"}],"stateMutability":"view"},{"type":"function","name":"storePrediction","inputs":[{"name":"_songId","type":"uint256","internalType":"uint256"},{"name":"_hitProbability","type":"uint256","internalType":"uint256"},{"name":"_isPredictedHit","type":"bool","internalType":"bool"},{"name":"_modelVersion","type":"string","internalType":"string"},{"name":"_songHash","type":"string","internalType":"string"}],"outputs":[{"name":"","type":"uint256","internalType":"uint256"}],"stateMutability":"nonpayable"},{"type":"function","name":"symbol","inputs":[],"outputs":[{"name":"","type":"string","internalType":"string"}],"stateMutability":"view"},{"type":"function","name":"tokenPenalty","inputs":[],"outputs":[{"name":"","type":"uint256","internalType":"uint256"}],"stateMutability":"view"},{"type":"function","name":"tokenReward","inputs":[],"outputs":[{"name":"","type":"uint256","internalType":"uint256"}],"stateMutability":"view"},{"type":"function","name":"totalSupply","inputs":[],"outputs":[{"name":"","type":"uint256","internalType":"uint256"}],"stateMutability":"view"},{"type":"function","name":"transferOwnership","inputs":[{"name":"_newOwner","type":"address","internalType":"address"}],"outputs":[],"stateMutability":"nonpayable"},{"type":"function","name":"verifyPrediction","inputs":[{"name":"_predictionId","type":"uint256","internalType":"uint256"},{"name":"_actualOutcome","type":"bool","internalType":"bool"}],"outputs":[],"stateMutability":"nonpayable"},{"type":"event","name":"PredictionStored","inputs":[{"name":"predictionId","type":"uint256","indexed":true,"internalType":"uint256"},{"name":"predictor","type":"address","indexed":true,"internalType":"address"},{"name":"songId","type":"uint256","indexed":false,"internalType":"uint256"},{"name":"hitProbability","type":"uint256","indexed":false,"internalType":"uint256"},{"name":"isPredictedHit","type":"bool","indexed":false,"internalType":"bool"},{"name":"modelVersion","type":"string","indexed":false,"internalType":"string"}],"anonymous":false},{"type":"event","name":"PredictionVerified","inputs":[{"name":"predictionId","type":"uint256","indexed":true,"internalType":"uint256"},{"name":"actualOutcome","type":"bool","indexed":false,"internalType":"bool"},{"name":"verifier","type":"address","indexed":true,"internalType":"address"},{"name":"predictor","type":"address","indexed":true,"internalType":"address"},{"name":"tokenChange","type":"int256","indexed":false,"internalType":"int256"},{"name":"gasUsed","type":"uint256","indexed":false,"internalType":"uint256"}],"anonymous":false}],"bytecode":{"object":"0x608060405234801561000f575f80fd5b503360035f6101000a81548173ffffffffffffffffffffffffffffffffffffffff021916908373ffffffffffffffffffffffffffffffffffffffff1602179055505f60028190555061269a806100645f395ff3fe608060405234801561000f575f80fd5b506004361061011e575f3560e01c80635c580061116100ab5780638da5cb5b1161006f5780638da5cb5b1461034b57806395d89b4114610369578063d8d9292e14610387578063f2fde38b146103a5578063fe83bece146103c15761011e565b80635c5800611461029357806369716938146102b15780636e66f6e9146102cd57806370a08231146102eb5780638125e8b71461031b5761011e565b806327e235e3116100f257806327e235e3146101c6578063313ce567146101f6578063331387ca1461021457806339a49b97146102445780633c308e49146102625761011e565b80624fbbb01461012257806306fdde031461015a578063145311071461017857806318160ddd146101a8575b5f80fd5b61013c600480360381019061013791906116bc565b6103f1565b604051610151999897969594939291906117d9565b60405180910390f35b61016261058a565b60405161016f9190611872565b60405180910390f35b610192600480360381019061018d91906119e8565b6105c3565b60405161019f9190611a97565b60405180910390f35b6101b06108cb565b6040516101bd9190611a97565b60405180910390f35b6101e060048036038101906101db9190611ada565b6108d1565b6040516101ed9190611a97565b60405180910390f35b6101fe6108e6565b60405161020b9190611b20565b60405180910390f35b61022e60048036038101906102299190611b39565b6108eb565b60405161023b9190611a97565b60405180910390f35b61024c610916565b6040516102599190611a97565b60405180910390f35b61027c60048036038101906102779190611ada565b610922565b60405161028a929190611b77565b60405180910390f35b61029b610c62565b6040516102a89190611a97565b60405180910390f35b6102cb60048036038101906102c69190611b9e565b610c6b565b005b6102d561113c565b6040516102e29190611a97565b60405180910390f35b61030560048036038101906103009190611ada565b611148565b6040516103129190611a97565b60405180910390f35b61033560048036038101906103309190611ada565b61118e565b6040516103429190611c93565b60405180910390f35b610353611221565b6040516103609190611cb3565b60405180910390f35b610371611246565b60405161037e9190611872565b60405180910390f35b61038f61127f565b60405161039c9190611a97565b60405180910390f35b6103bf60048036038101906103ba9190611ada565b611285565b005b6103db60048036038101906103d691906116bc565b6113c5565b6040516103e89190611dfb565b60405180910390f35b5f602052805f5260405f205f91509050805f015f9054906101000a900473ffffffffffffffffffffffffffffffffffffffff1690806001015490806002015490806003015490806004015f9054906101000a900460ff169080600501805461045890611e48565b80601f016020809104026020016040519081016040528092919081815260200182805461048490611e48565b80156104cf5780601f106104a6576101008083540402835291602001916104cf565b820191905f5260205f20905b8154815290600101906020018083116104b257829003601f168201915b5050505050908060060180546104e490611e48565b80601f016020809104026020016040519081016040528092919081815260200182805461051090611e48565b801561055b5780601f106105325761010080835404028352916020019161055b565b820191905f5260205f20905b81548152906001019060200180831161053e57829003601f168201915b505050505090806007015f9054906101000a900460ff16908060070160019054906101000a900460ff16905089565b6040518060400160405280600c81526020017f486974536f6e67546f6b656e000000000000000000000000000000000000000081525081565b5f612710851115610609576040517f08c379a000000000000000000000000000000000000000000000000000000000815260040161060090611ec2565b60405180910390fd5b5f83511161064c576040517f08c379a000000000000000000000000000000000000000000000000000000000815260040161064390611f2a565b60405180910390fd5b5f82511161068f576040517f08c379a000000000000000000000000000000000000000000000000000000000815260040161068690611f92565b60405180910390fd5b5f60025490506040518061012001604052803373ffffffffffffffffffffffffffffffffffffffff16815260200142815260200188815260200187815260200186151581526020018581526020018481526020015f151581526020015f15158152505f808381526020019081526020015f205f820151815f015f6101000a81548173ffffffffffffffffffffffffffffffffffffffff021916908373ffffffffffffffffffffffffffffffffffffffff1602179055506020820151816001015560408201518160020155606082015181600301556080820151816004015f6101000a81548160ff02191690831515021790555060a0820151816005019081610797919061214d565b5060c08201518160060190816107ad919061214d565b5060e0820151816007015f6101000a81548160ff0219169083151502179055506101008201518160070160016101000a81548160ff02191690831515021790555090505060015f3373ffffffffffffffffffffffffffffffffffffffff1673ffffffffffffffffffffffffffffffffffffffff1681526020019081526020015f2081908060018154018082558091505060019003905f5260205f20015f909190919091505560025f81548092919061086490612249565b91905055503373ffffffffffffffffffffffffffffffffffffffff16817f6f71ee649969c04de4bf483a3146c1e58316380d1d17bce811d8efcbfff309ed898989896040516108b69493929190612290565b60405180910390a38091505095945050505050565b60055481565b6004602052805f5260405f205f915090505481565b601281565b6001602052815f5260405f208181548110610904575f80fd5b905f5260205f20015f91509150505481565b674563918244f4000081565b5f805f60015f8573ffffffffffffffffffffffffffffffffffffffff1673ffffffffffffffffffffffffffffffffffffffff1681526020019081526020015f208054806020026020016040519081016040528092919081815260200182805480156109aa57602002820191905f5260205f20905b815481526020019060010190808311610996575b505050505090505f8092505f5b8251811015610c2a575f805f8584815181106109d6576109d56122da565b5b602002602001015181526020019081526020015f20604051806101200160405290815f82015f9054906101000a900473ffffffffffffffffffffffffffffffffffffffff1673ffffffffffffffffffffffffffffffffffffffff1673ffffffffffffffffffffffffffffffffffffffff168152602001600182015481526020016002820154815260200160038201548152602001600482015f9054906101000a900460ff16151515158152602001600582018054610a9390611e48565b80601f0160208091040260200160405190810160405280929190818152602001828054610abf90611e48565b8015610b0a5780601f10610ae157610100808354040283529160200191610b0a565b820191905f5260205f20905b815481529060010190602001808311610aed57829003601f168201915b50505050508152602001600682018054610b2390611e48565b80601f0160208091040260200160405190810160405280929190818152602001828054610b4f90611e48565b8015610b9a5780601f10610b7157610100808354040283529160200191610b9a565b820191905f5260205f20905b815481529060010190602001808311610b7d57829003601f168201915b50505050508152602001600782015f9054906101000a900460ff161515151581526020016007820160019054906101000a900460ff16151515158152505090508060e0015115610c16578480610bef90612249565b95505080610100015115158160800151151503610c15578280610c1190612249565b9350505b5b508080610c2290612249565b9150506109b7565b505f8303610c3f575f80935093505050610c5d565b8261271082610c4e9190612307565b610c589190612375565b935050505b915091565b5f600254905090565b60035f9054906101000a900473ffffffffffffffffffffffffffffffffffffffff1673ffffffffffffffffffffffffffffffffffffffff163373ffffffffffffffffffffffffffffffffffffffff1614610cfa576040517f08c379a0000000000000000000000000000000000000000000000000000000008152600401610cf190612415565b60405180910390fd5b816002548110610d3f576040517f08c379a0000000000000000000000000000000000000000000000000000000008152600401610d369061247d565b60405180910390fd5b5f808481526020019081526020015f206007015f9054906101000a900460ff1615610d9f576040517f08c379a0000000000000000000000000000000000000000000000000000000008152600401610d96906124e5565b60405180910390fd5b60015f808581526020019081526020015f206007015f6101000a81548160ff021916908315150217905550815f808581526020019081526020015f2060070160016101000a81548160ff0219169083151502179055505f805f8581526020019081526020015f205f015f9054906101000a900473ffffffffffffffffffffffffffffffffffffffff1690505f805a9050848015610e5857505f808781526020019081526020015f206004015f9054906101000a900460ff165b15610ee857678ac7230489e8000060045f8573ffffffffffffffffffffffffffffffffffffffff1673ffffffffffffffffffffffffffffffffffffffff1681526020019081526020015f205f828254610eb19190612503565b92505081905550678ac7230489e8000060055f828254610ed19190612503565b92505081905550678ac7230489e8000091506110ba565b84158015610f1357505f808781526020019081526020015f206004015f9054906101000a900460ff16155b15610fa357678ac7230489e8000060045f8573ffffffffffffffffffffffffffffffffffffffff1673ffffffffffffffffffffffffffffffffffffffff1681526020019081526020015f205f828254610f6c9190612503565b92505081905550678ac7230489e8000060055f828254610f8c9190612503565b92505081905550678ac7230489e8000091506110b9565b5f60045f8573ffffffffffffffffffffffffffffffffffffffff1673ffffffffffffffffffffffffffffffffffffffff1681526020019081526020015f2054674563918244f4000011156110345760045f8573ffffffffffffffffffffffffffffffffffffffff1673ffffffffffffffffffffffffffffffffffffffff1681526020019081526020015f205461103e565b674563918244f400005b90508060045f8673ffffffffffffffffffffffffffffffffffffffff1673ffffffffffffffffffffffffffffffffffffffff1681526020019081526020015f205f82825461108c9190612536565b925050819055508060055f8282546110a49190612536565b92505081905550806110b590612572565b9250505b5b5f5a826110c79190612536565b90508373ffffffffffffffffffffffffffffffffffffffff163373ffffffffffffffffffffffffffffffffffffffff16887f8d921f6a044f37210da5fff9a7c2c39665475d4eef0662097f3a3dd1b7108b1589878660405161112b939291906125c7565b60405180910390a450505050505050565b678ac7230489e8000081565b5f60045f8373ffffffffffffffffffffffffffffffffffffffff1673ffffffffffffffffffffffffffffffffffffffff1681526020019081526020015f20549050919050565b606060015f8373ffffffffffffffffffffffffffffffffffffffff1673ffffffffffffffffffffffffffffffffffffffff1681526020019081526020015f2080548060200260200160405190810160405280929190818152602001828054801561121557602002820191905f5260205f20905b815481526020019060010190808311611201575b50505050509050919050565b60035f9054906101000a900473ffffffffffffffffffffffffffffffffffffffff1681565b6040518060400160405280600381526020017f485354000000000000000000000000000000000000000000000000000000000081525081565b60025481565b60035f9054906101000a900473ffffffffffffffffffffffffffffffffffffffff1673ffffffffffffffffffffffffffffffffffffffff163373ffffffffffffffffffffffffffffffffffffffff1614611314576040517f08c379a000000000000000000000000000000000000000000000000000000000815260040161130b90612415565b60405180910390fd5b5f73ffffffffffffffffffffffffffffffffffffffff168173ffffffffffffffffffffffffffffffffffffffff1603611382576040517f08c379a000000000000000000000000000000000000000000000000000000000815260040161137990612646565b60405180910390fd5b8060035f6101000a81548173ffffffffffffffffffffffffffffffffffffffff021916908373ffffffffffffffffffffffffffffffffffffffff16021790555050565b6113cd611617565b816002548110611412576040517f08c379a00000000000000000000000000000000000000000000000000000000081526004016114099061247d565b60405180910390fd5b5f808481526020019081526020015f20604051806101200160405290815f82015f9054906101000a900473ffffffffffffffffffffffffffffffffffffffff1673ffffffffffffffffffffffffffffffffffffffff1673ffffffffffffffffffffffffffffffffffffffff168152602001600182015481526020016002820154815260200160038201548152602001600482015f9054906101000a900460ff161515151581526020016005820180546114ca90611e48565b80601f01602080910402602001604051908101604052809291908181526020018280546114f690611e48565b80156115415780601f1061151857610100808354040283529160200191611541565b820191905f5260205f20905b81548152906001019060200180831161152457829003601f168201915b5050505050815260200160068201805461155a90611e48565b80601f016020809104026020016040519081016040528092919081815260200182805461158690611e48565b80156115d15780601f106115a8576101008083540402835291602001916115d1565b820191905f5260205f20905b8154815290600101906020018083116115b457829003601f168201915b50505050508152602001600782015f9054906101000a900460ff161515151581526020016007820160019054906101000a900460ff161515151581525050915050919050565b6040518061012001604052805f73ffffffffffffffffffffffffffffffffffffffff1681526020015f81526020015f81526020015f81526020015f1515815260200160608152602001606081526020015f151581526020015f151581525090565b5f604051905090565b5f80fd5b5f80fd5b5f819050919050565b61169b81611689565b81146116a5575f80fd5b50565b5f813590506116b681611692565b92915050565b5f602082840312156116d1576116d0611681565b5b5f6116de848285016116a8565b91505092915050565b5f73ffffffffffffffffffffffffffffffffffffffff82169050919050565b5f611710826116e7565b9050919050565b61172081611706565b82525050565b61172f81611689565b82525050565b5f8115159050919050565b61174981611735565b82525050565b5f81519050919050565b5f82825260208201905092915050565b5f5b8381101561178657808201518184015260208101905061176b565b5f8484015250505050565b5f601f19601f8301169050919050565b5f6117ab8261174f565b6117b58185611759565b93506117c5818560208601611769565b6117ce81611791565b840191505092915050565b5f610120820190506117ed5f83018c611717565b6117fa602083018b611726565b611807604083018a611726565b6118146060830189611726565b6118216080830188611740565b81810360a083015261183381876117a1565b905081810360c083015261184781866117a1565b905061185660e0830185611740565b611864610100830184611740565b9a9950505050505050505050565b5f6020820190508181035f83015261188a81846117a1565b905092915050565b61189b81611735565b81146118a5575f80fd5b50565b5f813590506118b681611892565b92915050565b5f80fd5b5f80fd5b7f4e487b71000000000000000000000000000000000000000000000000000000005f52604160045260245ffd5b6118fa82611791565b810181811067ffffffffffffffff82111715611919576119186118c4565b5b80604052505050565b5f61192b611678565b905061193782826118f1565b919050565b5f67ffffffffffffffff821115611956576119556118c4565b5b61195f82611791565b9050602081019050919050565b828183375f83830152505050565b5f61198c6119878461193c565b611922565b9050828152602081018484840111156119a8576119a76118c0565b5b6119b384828561196c565b509392505050565b5f82601f8301126119cf576119ce6118bc565b5b81356119df84826020860161197a565b91505092915050565b5f805f805f60a08688031215611a0157611a00611681565b5b5f611a0e888289016116a8565b9550506020611a1f888289016116a8565b9450506040611a30888289016118a8565b935050606086013567ffffffffffffffff811115611a5157611a50611685565b5b611a5d888289016119bb565b925050608086013567ffffffffffffffff811115611a7e57611a7d611685565b5b611a8a888289016119bb565b9150509295509295909350565b5f602082019050611aaa5f830184611726565b92915050565b611ab981611706565b8114611ac3575f80fd5b50565b5f81359050611ad481611ab0565b92915050565b5f60208284031215611aef57611aee611681565b5b5f611afc84828501611ac6565b91505092915050565b5f60ff82169050919050565b611b1a81611b05565b82525050565b5f602082019050611b335f830184611b11565b92915050565b5f8060408385031215611b4f57611b4e611681565b5b5f611b5c85828601611ac6565b9250506020611b6d858286016116a8565b9150509250929050565b5f604082019050611b8a5f830185611726565b611b976020830184611726565b9392505050565b5f8060408385031215611bb457611bb3611681565b5b5f611bc1858286016116a8565b9250506020611bd2858286016118a8565b9150509250929050565b5f81519050919050565b5f82825260208201905092915050565b5f819050602082019050919050565b611c0e81611689565b82525050565b5f611c1f8383611c05565b60208301905092915050565b5f602082019050919050565b5f611c4182611bdc565b611c4b8185611be6565b9350611c5683611bf6565b805f5b83811015611c86578151611c6d8882611c14565b9750611c7883611c2b565b925050600181019050611c59565b5085935050505092915050565b5f6020820190508181035f830152611cab8184611c37565b905092915050565b5f602082019050611cc65f830184611717565b92915050565b611cd581611706565b82525050565b611ce481611735565b82525050565b5f82825260208201905092915050565b5f611d048261174f565b611d0e8185611cea565b9350611d1e818560208601611769565b611d2781611791565b840191505092915050565b5f61012083015f830151611d485f860182611ccc565b506020830151611d5b6020860182611c05565b506040830151611d6e6040860182611c05565b506060830151611d816060860182611c05565b506080830151611d946080860182611cdb565b5060a083015184820360a0860152611dac8282611cfa565b91505060c083015184820360c0860152611dc68282611cfa565b91505060e0830151611ddb60e0860182611cdb565b50610100830151611df0610100860182611cdb565b508091505092915050565b5f6020820190508181035f830152611e138184611d32565b905092915050565b7f4e487b71000000000000000000000000000000000000000000000000000000005f52602260045260245ffd5b5f6002820490506001821680611e5f57607f821691505b602082108103611e7257611e71611e1b565b5b50919050565b7f4869742070726f626162696c697479206d757374206265203c3d2031303030305f82015250565b5f611eac602083611759565b9150611eb782611e78565b602082019050919050565b5f6020820190508181035f830152611ed981611ea0565b9050919050565b7f4d6f64656c2076657273696f6e2063616e6e6f7420626520656d7074790000005f82015250565b5f611f14601d83611759565b9150611f1f82611ee0565b602082019050919050565b5f6020820190508181035f830152611f4181611f08565b9050919050565b7f536f6e6720686173682063616e6e6f7420626520656d707479000000000000005f82015250565b5f611f7c601983611759565b9150611f8782611f48565b602082019050919050565b5f6020820190508181035f830152611fa981611f70565b9050919050565b5f819050815f5260205f209050919050565b5f6020601f8301049050919050565b5f82821b905092915050565b5f6008830261200c7fffffffffffffffffffffffffffffffffffffffffffffffffffffffffffffffff82611fd1565b6120168683611fd1565b95508019841693508086168417925050509392505050565b5f819050919050565b5f61205161204c61204784611689565b61202e565b611689565b9050919050565b5f819050919050565b61206a83612037565b61207e61207682612058565b848454611fdd565b825550505050565b5f90565b612092612086565b61209d818484612061565b505050565b5b818110156120c0576120b55f8261208a565b6001810190506120a3565b5050565b601f821115612105576120d681611fb0565b6120df84611fc2565b810160208510156120ee578190505b6121026120fa85611fc2565b8301826120a2565b50505b505050565b5f82821c905092915050565b5f6121255f198460080261210a565b1980831691505092915050565b5f61213d8383612116565b9150826002028217905092915050565b6121568261174f565b67ffffffffffffffff81111561216f5761216e6118c4565b5b6121798254611e48565b6121848282856120c4565b5f60209050601f8311600181146121b5575f84156121a3578287015190505b6121ad8582612132565b865550612214565b601f1984166121c386611fb0565b5f5b828110156121ea578489015182556001820191506020850194506020810190506121c5565b868310156122075784890151612203601f891682612116565b8355505b6001600288020188555050505b505050505050565b7f4e487b71000000000000000000000000000000000000000000000000000000005f52601160045260245ffd5b5f61225382611689565b91507fffffffffffffffffffffffffffffffffffffffffffffffffffffffffffffffff82036122855761228461221c565b5b600182019050919050565b5f6080820190506122a35f830187611726565b6122b06020830186611726565b6122bd6040830185611740565b81810360608301526122cf81846117a1565b905095945050505050565b7f4e487b71000000000000000000000000000000000000000000000000000000005f52603260045260245ffd5b5f61231182611689565b915061231c83611689565b925082820261232a81611689565b915082820484148315176123415761234061221c565b5b5092915050565b7f4e487b71000000000000000000000000000000000000000000000000000000005f52601260045260245ffd5b5f61237f82611689565b915061238a83611689565b92508261239a57612399612348565b5b828204905092915050565b7f4f6e6c79206f776e65722063616e2063616c6c20746869732066756e6374696f5f8201527f6e00000000000000000000000000000000000000000000000000000000000000602082015250565b5f6123ff602183611759565b915061240a826123a5565b604082019050919050565b5f6020820190508181035f83015261242c816123f3565b9050919050565b7f50726564696374696f6e20646f6573206e6f74206578697374000000000000005f82015250565b5f612467601983611759565b915061247282612433565b602082019050919050565b5f6020820190508181035f8301526124948161245b565b9050919050565b7f50726564696374696f6e20616c726561647920766572696669656400000000005f82015250565b5f6124cf601b83611759565b91506124da8261249b565b602082019050919050565b5f6020820190508181035f8301526124fc816124c3565b9050919050565b5f61250d82611689565b915061251883611689565b92508282019050808211156125305761252f61221c565b5b92915050565b5f61254082611689565b915061254b83611689565b92508282039050818111156125635761256261221c565b5b92915050565b5f819050919050565b5f61257c82612569565b91507f800000000000000000000000000000000000000000000000000000000000000082036125ae576125ad61221c565b5b815f039050919050565b6125c181612569565b82525050565b5f6060820190506125da5f830186611740565b6125e760208301856125b8565b6125f46040830184611726565b949350505050565b7f4e6577206f776e65722063616e6e6f74206265207a65726f20616464726573735f82015250565b5f612630602083611759565b915061263b826125fc565b602082019050919050565b5f6020820190508181035f83015261265d81612624565b905091905056fea26469706673582212207c02be05727bbfc60d32647999c59735b663bfd13f0eaf8773d6e64ee7a70d3164736f6c63430008140033","linkReferences":{}},"methodIdentifiers":{"balanceOf(address)":"70a08231","balances(address)":"27e235e3","calculatePredictorAccuracy(address)":"3c308e49","decimals()":"313ce567","getPrediction(uint256)":"fe83bece","getPredictorHistory(address)":"8125e8b7","getTotalPredictions()":"5c580061","name()":"06fdde03","nextPredictionId()":"d8d9292e","owner()":"8da5cb5b","predictions(uint256)":"004fbbb0","predictorHistory(address,uint256)":"331387ca","storePrediction(uint256,uint256,bool,string,string)":"14531107","symbol()":"95d89b41","tokenPenalty()":"39a49b97","tokenReward()":"6e66f6e9","totalSupply()":"18160ddd","transferOwnership(address)":"f2fde38b","verifyPrediction(uint256,bool)":"69716938"},"id":0}